:040000000C94430019
:100004000C9400000C9400000C9400000C9400006C
:100014000C9400000C9400000C9400000C9400005C
:100024000C9400000C9400000C9400000C9400004C
:100034000C9400000C9400000C9400000C9400003C
:100044000C9400000C9400000C9400000C9400002C
:100054001027E80364000A000100001000011000EA
:1000640001002564000080C001002D4E414E00496E
:100074004E460000020068026A0001006C026C0037
:100084000000F894EE27ECBBF1E0FBBFEBBFE5BF4B
:100094008DE0A2E0BB27ED938A95E9F780E098E034
:1000A400A0E6ED930197E9F7E8E7F0E085919591F3
:1000B400009761F0A591B59105901590BF01F001ED
:1000C40005900D920197E1F7FB01F0CFEFE5EDBF4D
:1000D400E8E0EEBFC0E6D2E00C94850194989598D0
:1000E40096989798A4EFB1E00E946404949A809B38
:1000F40003C0E7E0F0E00895819B03C0E4E0F0E092
:100104000895829B03C0E1E0F0E00895839B03C05F
:10011400EAE0F0E008959498959A809B03C0E8E0A3
:10012400F0E00895819B03C0E5E0F0E00895829B30
:1001340003C0E2E0F0E00895839B03C0E0E0F0E058
:1001440008959598969A809B03C0E9E0F0E008959D
:10015400819B03C0E6E0F0E00895829B03C0E3E0E6
:10016400F0E00895839B03C0EBE0F0E008959698D7
:10017400979A809B03C0ECE0F0E00895819B03C054
:10018400EDE0F0E00895829B03C0EEE0F0E0089516
:10019400839B03C0EFE0F0E008959798A7CFBA934C
:1001A400AA931A9310E0A981BA811A971CF4AA8120
:1001B400AA230AF420C0E981E05D1E2FE0E3E515DF
:1001C40069F40E9400040E940904E0936002F09321
:1001D400610260936202709363020CC00E9418046F
:1001E4000E940904E0936402F0936502609366023E
:1001F400709367021BC0E0E3E515C1F4A981BA81DD
:100204001C9711F41FE211C0A981BA811D9711F442
:100214001AE20BC0A981BA811E9711F41DE205C030
:10022400A981BA811F9709F41BE2512E103011F0F5
:10023400A12FD0D0F2C0E52DF0E0EB32A0E0FA0718
:1002440029F40E9421040E9472040895ED32A0E072
:10025400FA0769F4A0916402B09165028091660284
:10026400909167020E9400040E9477040895EA3284
:10027400A0E0FA0729F40E9421040E94AD04089525
:10028400EF32A0E0FA0729F40E9421040E94D70467
:10029400089508952497D150CEDFDE01A050BF4FBA
:1002A400ED93FD936D937C93FE01FA93EA93E6E656
:1002B400F0E0FA93EA93FE01EC5FFE4F0190119097
:1002C40061917081F0010E94F70484E00E94B303FD
:1002D4002896DE0194D02496DF5F08956FD0E0E085
:1002E400E0936002E0936102E0936202E0936302B0
:1002F400E0936402E0936502E0936602E093670290
:10030400E0E35E2E0895E0EFE1BBE0E0E2BBA0E1B4
:1003140087D0E4DF2297E0E0E883E983A881B9810C
:100324001B97B9F0DBDEE883F983A881B9811A97BA
:1003340021F0A881B9811B9709F404C0A881B9816F
:100344002EDF06C0A881B9811A9711F4C7DFE6CF62
:10035400E5CFADE33FD09EDFC1DEC0DF2296DACF2A
:10036400FFCFAA93E5B3EF70AE2FE881E07FEA2BCD
:10037400E5BB82E08A95F1F7AA9A82E08A95F1F7C3
:10038400AA9882E08A95F1F776C0AA93A881E9DF5A
:10039400E881E295E883A881E4DF81E18A95F1F7B9
:1003A4006AC0AA93E881F0E0E859FD4FE081A98191
:1003B400AE0FEBDF4980788022960895A2E00E9478
:1003C4002B04ACE0E2DFA1E00E942B04E0E07E2EEF
:1003D4004E2E0895AA93A881AA3011F0461448F02D
:1003E400E0E0EA937394A72DDCDFA881AA3009F436
:1003F40042C04394A89AA881C8DFA8983CC0BA9385
:10040400AA931A93A981BA81ED91A983BA831E2F65
:10041400E03019F0A12FDEDFF5CF1881239608957F
:10042400AA93E4B3E06FE4BBA29AA09AA19AAA9813
:10043400A898A9986880E881E058E0936A02E88166
:10044400E054E0936B02A4E1B0E00E9464040E94D3
:1004540031040E9431040E943104A0E282DF81E26F
:100464008A95F1F7A8E291DFA4E08FDFA5E88DDF9C
:10047400A6E08BDFA3DF21960895BA93AA931A937B
:100484000A93AA81BB8112960E94EF04309759F116
:10049400AA81BB8114960E94EF048F01309761F00A
:1004A4000230E0E01E0798F0F80131978F01AA812D
:1004B400BB811496ED93FC93AA81BB811296ED91B6
:1004C400FD913196FE93EE933197AC81A083AA817E
:1004D400BB810E94EF04FF232AF0ED91FD91319638
:1004E400FE93EE9306C0AA81BB81EFEFFFEFED937D
:1004F400FC931981088125960895BA93AA932697A7
:100504000E94FC0410E0AC85BD85E0E0F0E0ED93D2
:10051400FC93EA89FB893196EA8BFB8B3197E49152
:100524002E2FE03009F415C1E12FE03039F42532E3
:1005340011F411E002C00E9438040AC1E130A9F4A8
:10054400253219F40E94380402C112E040E000E0B0
:100554002D3211F401E0FCC02B3211F44BE2F8C04F
:10056400203211F440E2F4C002C0E23039F450E029
:1005740013E0203311F40068EBC003C0E33009F04A
:10058400E7C0203310F02A3308F007C0AAE05A9FCE
:10059400502DE22FE0535E0FDBC0E22FE33649F427
:1005A4000E943F04E889F989A481AA930E94450422
:1005B400CEC0E33741F40E943F040E944B040E94E2
:1005C400E7031E2F0AC0E03761F40E943F040E9433
:1005D4004B040E94F3031E2F086002600F7730E083
:1005E40034C0E43611F0E93611F4046002C0E53792
:1005F40031F4E4E5F0E0EE83FF8315E00CC0E83568
:1006040011F4086003C0E83709F0A1C0EEE5F0E09A
:10061400EE83FF8314E002FF14C00E943F040E9493
:100624005504AB85AA233AF4EA85FB850E947C0431
:10063400EA87FB874DE2403011F01F5F01C00B7F5A
:1006440004C00E943F040E94550400FD11C0151708
:1006540078F407FF08C002FF04C00B7F242F115059
:1006640001C020E301C020E20E9438045150EFCFC2
:10067400312F01FF17C03030A1F003FF06C0EE8117
:10068400FF812591EE83FF8305C0AE81BF812D914B
:10069400AE83BF830E943804503009F0515031506A
:1006A400EACF4BC020E3EE81FF810E94F304E88788
:1006B400F987EE81FF813296EE83FF83E885F98521
:1006C400AA85BB85AE17BF0750F02F5FA885B985F3
:1006D400EA85FB85EA1BFB0BEA87FB87EFCF2A330E
:1006E40028F003FF02C0295F01C0295D04FD1AC080
:1006F400213320F4A885B985119709F409C053174B
:1007040010F000FF01C013C020E207FF0BC020E37C
:10071400006102FF07C00B7F4A930E9445045030DA
:1007240009F051500E943804503009F051503150B2
:10073400A885B985129708F0B5CF00FF08C05030DE
:1007440031F05150E0E2EA930E944504F8CF10E002
:10075400E0CEAC85BD850E94EF040E94030564963B
:100764000895FF92F82E26970E94FE040E945D04CD
:10077400309719F4EFEFFFEF23C0DE0116960E94C5
:100784006E048D010E945D04EE83FF83E0E0E88740
:10079400E987DE011A960E946E040E94EF04FA9320
:1007A400EA931A930A93EFE3F2E0FA93EA93DE01F1
:1007B4001A96A3DE9F01AE81BF81E0E0EC93F901BC
:1007C4000E9405052A96FF900895BA93AA93A991C9
:1007D400B991EE27FF276D91662311F03196FBCF77
:1007E4000895BA93AA93AA27BB27E991F991059092
:1007F400002011F01196FBCFFD010895E0916002F5
:10080400F091610260916202709163020895AAE01E
:10081400B0E080E090E00E94AD04DF01CB01E9810B
:10082400FA810E9488040E9472040895E09164028F
:10083400F091650260916602709167020895F6DF97
:10084400A0916002B0916102809162029091630272
:1008540008950E94C701A3E0B0E00C946404A0E3EF
:100864000E94B30181E28A95F1F708952A93AD8538
:10087400BE85EF85F88909950895E889F989349743
:10088400E88BF98B0895AD85BE85EF85F8890995C8
:100894000895A889B98914960E94EF04EE83FF8312
:1008A400AE81BF810895A889B98914960E94EF0486
:1008B400EA87FB870895DE011C960E946E040E945D
:1008C400EF040895109639F08AEF90E00197F1F75C
:1008D400A8951197C9F708950024AF0DB01D089588
:1008E400EA0FFB1F681F791F0895EA1BFB0B680BB7
:1008F400790B0895F195E195F0400895F095609590
:100904007095E195FF4F6F4F7F4F08956F2F660FDE
:10091400660B762F08957A9F702D6B9F700DF89F4C
:10092400700DE99F700D6A9F602D710DFB9F600D26
:10093400711DE89F600D711D8827FA9FF02D610DD0
:10094400781FEB9FF00D611D781FEA9FE02DF10DDC
:10095400681F781F08952ED0DEDF0EF4CFDF0895D0
:100964003F934F935F93002411244427552730E28B
:10097400AA0FBB1F881F991F001C111C441F551F61
:100984000E1A1F0A460B570B28F40E0E1F1E461F85
:10099400571F01C0A1603A9559F7FD01BC01D00170
:1009A400CA015F914F913F91089504D0D9DF0EF4AD
:1009B400A5DF0895E89477FF02C0A0DF689497FF4D
:1009C4000BC00024A095B095809590951196801D3C
:1009D400901D00F8039400FA0895ED91FC9111978D
:1009E40008950590F491E02D08957A936A93FA930B
:1009F400EA9308955A934A933A932A931A930A933B
:100A040008955D814C813B812A8119810881089573
:00000001FF
